:020000022000DC
:10900000000001207D270300A5270300A7270300F8
:10901000A9270300AB270300AD27030000000000D1
:10902000000000000000000000000000AF27030067
:10903000B127030000000000B3270300B527030099
:10904000355D0300B7270300294F030011550300C6
:10905000B72703005D2E0300CD580300B727030098
:10906000B7270300B7270300B7270300B72703007C
:10907000B7270300B7270300B7270300B72703006C
:10908000B727030089340300B7270300B72703007D
:1090900029350300B7270300952C0300B7270300E9
:1090A000B7270300B7270300B7270300B72703003C
:1090B000B7270300B72703000000000000000000EE
:1090C000B7270300B7270300B7270300B72703001C
:1090D000B7270300B7270300B727030000000000ED
:1090E0000000000000000000000000000000000080
:1090F0000000000000000000000000000000000070
:10910000000000000000000000000000000000005F
:10911000000000000000000000000000000000004F
:1094000010B5054C237833B9044B13B10448AFF3BE
:1094100000800123237010BD3C47002000000000A5
:10942000780C04000C4B43B10C480D4910B5AFF358
:1094300000800C48036823B910BD0A48036833B99B
:109440007047094B002BF7D0BDE810401847064B7A
:10945000002BF5D0184700BF00000000780C040076
:10946000404700202847002000000000154B002B3B
:1094700008BF134B9D46A3F5803A00218B460F464B
:109480001348144A121A00F063F80F4B002B00D057
:1094900098470E4B002B00D0984700200021040075
:1094A0000D000D48002802D00C48AFF3008000F0FA
:1094B0002BF82000290008F0B1FD00F011F800BFE2
:1094C0000000080000000120000000000000000073
:1094D0003C4700205C7800200000000000000000F5
:1094E00008B5074B044613B10021AFF30080054BCC
:1094F0001868836A03B1984720460FF05DFC00BFEF
:1095000000000000D48D030070B50D4E0D4CA41B5F
:10951000A4100025A54209D10B4E0C4C0FF04EFCB7
:10952000A41BA4100025A54205D170BD56F8253016
:1095300098470135EEE756F8253098470135F2E7B0
:1095400020470020204700202047002024470020FB
:1095500002440346934200D1704703F8011BF9E728
:10956000014B4000187070477C480020334BF0B529
:10957000334F1D684FF0A04208234FF0004E0124E6
:109580004FF4004610F0800F214614BFC2F81CE5CE
:10959000C2F818E500BF00BF00BF00BF00BF00BF9A
:1095A00000BF00BFBD4200D000BF0139F2D1C2F8F8
:1095B0000865214600BF00BF00BF00BF00BF00BF5D
:1095C00000BF00BFBD4200D000BF0139F2D1013B56
:1095D00040009BB2C0B2C2F80C65002BD2D14FF054
:1095E000A0434FF000410122C3F81C151446144853
:1095F00000BF00BF00BF00BF00BF00BF00BF00BF73
:10960000854200D000BF013CF2D14FF40044C3F8C2
:10961000084500BF00BF00BF00BF00BF00BF00BFC4
:1096200000BF854200D000BF013AF2D1D3F8100547
:10963000C3F80C45C00FC3F81815F0BD98450020BD
:109640000024F4002DE9F04F4FF0A04983B04FF013
:10965000004ADFF87C81C9F818A5012783460190EC
:109660000091D8F80030584D3A4600BF00BF00BF07
:1096700000BF00BF00BF00BF00BFAB4200D000BFB3
:10968000013AF2D1514B4FF40046C9F80C651878F5
:109690003843FFF76BFFD8F800403B4600BF00BFE0
:1096A00000BF00BF00BF00BF00BF00BFAC4200D082
:1096B00000BF013BF2D1BB4578DD0098ABF102035E
:1096C000494600EB030BB94600F1FF3C4FF0004365
:1096D000C1F81C3500220823C1F80865384600BFD0
:1096E00000BF00BF00BF00BF00BF00BF00BFAC4253
:1096F00000D000BF0138F2D1D1F810E5C1F80C65F7
:109700005200D2B2BEF1000F3846B8BF42F001029B
:1097100000BF00BF00BF00BF00BF00BF00BF00BF51
:10972000AC4200D000BF0138F2D1013B9BB2002B0C
:10973000D2D1C1F818A54B4600BF00BF00BF00BF83
:1097400000BF00BF00BF00BFAC4200D000BF013B64
:10975000F2D1C1F808654B4600BF00BF00BF00BF93
:1097600000BF00BF00BF00BFAC4200D000BF013B44
:10977000F2D1C1F80C65C1F81CA50CF8012F4B46BD
:10978000D8F8004000BF00BF00BF00BF00BF00BF4F
:1097900000BF00BFAC4200D000BF013BF2D1E345A7
:1097A00094D1019B009A013B1A4400924FF0A041D2
:1097B0004FF000434FF4004C034EC1F81C35674690
:1097C00008200023012505E00024F4007C48002047
:1097D00098450020C1F808752A4600BF00BF00BFA9
:1097E00000BF00BF00BF00BF00BFB44200D000BF39
:1097F000013AF2D1D1F810E5C1F80C755B00DBB28B
:10980000BEF1000F2A46B8BF43F0010300BF00BFFE
:1098100000BF00BF00BF00BF00BF00BFB44200D008
:1098200000BF013AF2D1013880B20028D2D12A46D5
:1098300000BF00BF00BF00BF00BF00BF00BF00BF30
:10984000B44200D000BF013AF2D1C1F808C52A469F
:1098500000BF00BF00BF00BF00BF00BF00BF00BF10
:10986000B44200D000BF013AF2D1C1F80CC52A467B
:1098700000BF00BF00BF00BF00BF00BF00BF00BFF0
:10988000B44200D000BF013AF2D1009C4FF0004238
:109890002370C1F81825D8F800402B4600BF00BF40
:1098A00000BF00BF00BF00BF00BF00BFB44200D078
:1098B00000BF013BF2D1C1F808C52B4600BF00BF75
:1098C00000BF00BF00BF00BF00BF00BFB44200D058
:1098D00000BF013BF2D1C1F81C2503B0BDE8F08FF9
:1098E0002DE9F84F4FF0A0444FF00049DFF864A194
:1098F000C4F81895012583468846DAF80030534F9E
:109900002A4600BF00BF00BF00BF00BF00BF00BFAE
:1099100000BFBB4200D000BF013AF2D14C4B4FF424
:109920000046C4F80C651878FFF720FEBBF1000F65
:10993000DAF800E05FDD08EB0B0C494618F8019BF4
:10994000082319F0800F2A4614BFC4F81C15C4F868
:10995000181500BF00BF00BF00BF00BF00BF00BFA1
:1099600000BFBE4500D000BF013AF2D1C4F808657F
:109970002A4600BF00BF00BF00BF00BF00BF00BF3E
:1099800000BFBE4500D000BF013AF2D1013B4FEA13
:1099900049029BB25FFA82F9C4F80C65002BD0D162
:1099A000C4F81C152B4600BF00BF00BF00BF00BF9E
:1099B00000BF00BF00BFBE4500D000BF013BF2D1D9
:1099C000C4F808652B4600BF00BF00BF00BF00BF42
:1099D00000BF00BF00BFBE4500D000BF013BF2D1B9
:1099E000D4F81035C4F80C6500EBD370E04580B2B4
:1099F000C4F81815A2D14FF0A0424FF00041012346
:109A0000C2F818151D46114C00BF00BF00BF00BFB3
:109A100000BF00BF00BF00BFA64500D000BF013D92
:109A2000F2D14FF40045C2F8085500BF00BF00BF97
:109A300000BF00BF00BF00BF00BFA64500D000BFF1
:109A4000013BF2D1C2F81C15BDE8F88F0024F400E8
:109A50007C48002098450020C2DF7047C4DF704773
:109A6000C5DF7047C7DF7047CCDF7047CDDF704779
:109A7000D1DF7047D3DF7047D6DF7047DADF70473A
:109A800090F82030012B2DD014D3022B11D190F857
:109A90002130072B3CD0802B23D143784E3B022B27
:109AA0001FD81F4BB0F80710B0F809201A80598052
:109AB0007047704790F82130072B2DD0802B10D1A4
:109AC00043784E3B022B0CD810B41649164A0B783B
:109AD000B0F80740548001330B70407A5DF8044BB6
:109AE0001080704790F82130072B0DD0802BF8D1D3
:109AF00043784E3B022BF4D80C4BB0F80710B0F86B
:109B000009201A8059807047094B00221A7070474B
:109B1000084B00221A707047074B00221A707047DA
:109B200058470020855100205C47002068470020EE
:109B30005D5100205C5100208451002090F82010DD
:109B400049B9F8B590F82130072B05D0802B18D0F3
:109B5000032B0BD0F8BD7047144B1B78002BF9D0AA
:109B60000846FFF77BFF0028F4D006E00846104ABD
:109B70000821FFF777FF0028ECD0BDE8F84009F096
:109B80008DBB0C4E044600F1200720686168A26876
:109B9000E36835460FC51034BC422E46F5D1206827
:109BA0002860BDE8F840062008F0DEBA5E510020CB
:109BB0001445002060510020024B1878003018BF77
:109BC000012070475D51002010B582B002AB002229
:109BD00003F8012D0446184609F082FB044B9DF85A
:109BE00007001B68236009F0A1FB02B010BD00BF95
:109BF0006847002008B5074B197801B108BD01205E
:109C0000FFF72CFF01221A700028F7D0BDE80840AA
:109C100009F044BB5D51002010B5074C237803B90F
:109C200010BD0120FFF71CFF10B90023237010BDE9
:109C300009F034FBF9E700BF5D510020024B1878B2
:109C4000003018BF012070475C51002010B582B071
:109C500002AB002203F8012D0446184609F040FB30
:109C6000044B9DF807001B68236009F05FFB02B0FE
:109C700010BD00BF5847002010B5074C217801B136
:109C800010BD0220FFF7EAFE10B90123237010BDBA
:109C900009F004FBF9E700BF5C51002010B5074C48
:109CA000237803B910BD0220FFF7DAFE10B90023B4
:109CB000237010BD09F0F2FAF9E700BF5C510020F3
:109CC000024B1878003018BF0120704784510020E3
:109CD00010B582B002AB002203F8012D04461846ED
:109CE00009F0FEFA044B9DF807001B68236009F099
:109CF0001DFB02B010BD00BF5C47002010B5074C33
:109D0000217801B110BD0846FFF7A8FE10B9012364
:109D1000237010BD09F0C2FAF9E700BF845100209A
:109D200010B5074C237803B910BD0020FFF798FE4B
:109D300010B90023237010BD09F0B0FAF9E700BF95
:109D40008451002008B500231A4618464021FFF729
:109D500083FE002840F0A38000231946184678228D
:109D6000FFF788FE002840F0978039210020FFF798
:109D70007DFE002840F08D8041F686710020FFF7BF
:109D800077FE002840F0828000210846FFF774FE2D
:109D9000002878D10A210020FFF770FE00286FD13B
:109DA00000231A4640210120FFF756FE002864D107
:109DB000002319467B220120FFF75CFE002859D1C1
:109DC00039210120FFF752FE002850D141F6B6712B
:109DD0000120FFF74DFE002846D100210120FFF7AA
:109DE0004BFEF0BB0A210120FFF748FEB0BB002369
:109DF0001A4640210220FFF72FFE60BB00231946C0
:109E00007A220220FFF736FE10BB39210220FFF72D
:109E10002DFED0B941F6A6710220FFF729FE88B9C0
:109E200000210220FFF728FE48B90A210220FFF78F
:109E300025FE00B908BDBDE8084009F02FBA09F0B9
:109E40002DFAF2E709F02AFAEAE709F027FAE1E742
:109E500009F024FAD9E709F021FACFE709F01EFA50
:109E6000C5E709F01BFABDE709F018FAB5E709F0F4
:109E700015FAABE709F012FAA2E709F00FFA97E733
:109E800009F00CFA8CE709F009FA83E709F006FA01
:109E90007AE709F003FA6FE709F000FA65E709F0DD
:109EA000FDF959E708B50B4808F0EAFE70B90CF067
:109EB0004BF940B900200CF059F900B908BDBDE8D4
:109EC000084009F0EBB909F0E9F9F3E709F0E6F920
:109ED000EDE700BF819A020008B50021054B012281
:109EE00008461A70FFF7BAFD00B908BDBDE8084082
:109EF00009F0D4B95E51002008B5064A002318467F
:109F00001370FFF7ADFD00B908BDBDE8084009F0CA
:109F1000C5B900BF5E51002008B5234808F0B0FE67
:109F200000283DD10CF010F9B8BB20490020FFF704
:109F30009BFD78BB00231A4618461021FFF78CFDC5
:109F400028BB01231946FF220020FFF793FDD8B953
:109F500042210020FFF78AFD98B940F6CD4100204C
:109F6000FFF786FD50B9124A08210020FFF77AFD5D
:109F700000B908BDBDE8084009F090B909F08EF9B4
:109F8000F1E709F08BF9E8E709F088F9E0E709F073
:109F900085F9D6E709F082F9CCE709F07FF9C4E743
:109FA00009F07CF9BEE700BF3D9B0200604700203E
:109FB0001445002075DF704776DF70478ADF7047F1
:109FC0008BDF70478CDF704794DF704796DF7047F8
:109FD0009ADF70479CDF704769DF70472DE9F04FCB
:109FE000064687B00CF012F83146AC480BF03CFF47
:109FF0003388103B462B63D8DFE813F09000A000B5
:10A000006200620062006200620062006200620040
:10A010006200DB006200DF0062006C01620062002F
:10A020006200620062006200620062006200620020
:10A0300062006200620062006200620075016200FC
:10A040008E016200620062007000620062008500A2
:10A0500062006500620062006200620062006200ED
:10A0600062006200620062006200620062006200E0
:10A0700062006200620062006200620062006200D0
:10A0800062006200620062006500019E844B1B78E2
:10A09000B3B1844CFFF794FF2578834A6FF34105F1
:10A0A00006F10800214601232570FFF78BFF0028E9
:10A0B00000F0CD81122800F0D4817C4C0023237065
:10A0C00007B0BDE8F08FB0881321FFF775FF0028B7
:10A0D000F6D009F0E3F807B0BDE8F08F744B1B78B9
:10A0E000002B00F08F81012BEAD1F489714B06F12E
:10A0F0001001224618460EF084F9034609205C76CA
:10A1000008F032F8DCE76C4B6C4A188811890022A1
:10A11000FFF75EFF664B01221A70D1E7664BB088ED
:10A12000624D674C188001230326194600222E70C9
:10A130002380FFF749FF0028C2D0CAE75D4A614982
:10A140005A4C614D0023136053609360D3601361D8
:10A15000536113832D26082023704B700E7008F076
:10A1600003F82B78002BABD00BF0E4FF0028A7D12D
:10A170002378002BA4D14B490A7863F3000263F3E0
:10A18000410263F38202A0275026782308464F80BD
:10A190008E800A70CB80FFF711FF002840F0778196
:10A1A0004A49474A012300200880138023702B70FE
:10A1B00086E73E4B00221A7082E7394996F81790DD
:10A1C000434A00230B704FEAD903984606F118075B
:10A1D00006F1080306F128011D685C689868D3F849
:10A1E0000CE0C2F80CE010338B42156054609060B4
:10A1F00002F11002F0D1186859689C6894601060F0
:10A20000516099899B7B93730520918107F0ACFF86
:10A210004346002B3FF43AAF002501960CE013F0C3
:10A22000C00F40F0CE8013F00C0F40F0E6800134F8
:10A2300025444545BFF429AF7B197C5D5B78092B2C
:10A24000F5D84FF0010909FA03F313F4407FE6D083
:10A25000134B1B78002BEAD005F10209012CB944FD
:10A2600000F0FD80174ECB461BF901AB0EF09AF8BB
:10A2700050446FEA0B02437803F00303022B22449D
:10A2800000F0968019EB020F06F801ABECD10D4AF5
:10A29000631E134400221A70C9E700BFBC470020A8
:10A2A000F9510020D8470020048E03009851002067
:10A2B00094510020FC5100201C45002088510020B2
:10A2C00092510020D8510020F8510020CC5100209C
:10A2D0009C51002006F10801B088FFF76BFE0028B2
:10A2E0003FF4EEAEF5E6B389002B49D07389002B1D
:10A2F00000F0A7806C486D4A318A738A6C4C0088E4
:10A30000118001339BB2194600222380FFF75CFEC7
:10A3100000283FF4D5AEDCE606F10C0303CB654A1A
:10A320001B881381516073891060012B7FF4C8AEC4
:10A33000337CDB067FF5C4AE5F4B1B78002B40F00F
:10A340008A80072007F010FFB38A5C4C56485C4AAD
:10A35000238006A9012500242B44022601F80C5D68
:10A360000088ADF80E30157005925470ADF81040AD
:10A37000ADF81260FFF72EFE00283FF4A1AEA8E66C
:10A380007289002A3FF49CAE474A318A10884D4FAB
:10A39000464C1A46FFF71CFEDFF84CE14A4A30698A
:10A3A000358A718A8EF8003038602580118087E602
:10A3B000AAF1200A19EB020F06F801AB7FF454AFA3
:10A3C00065E705F1020ABA44514610223F480EF0F3
:10A3D00009F820B9384B3E4A187082F8009051466F
:10A3E00010223C480DF0FEFF00287FF420AF324AD7
:10A3F00001231370364A137019E73749042009F016
:10A4000087FD14E7F489102C15D110363146224609
:10A410002E480DF0E7FF28B1224631462D480DF0B9
:10A42000E1FF40B9204B27491888FFF7CFFD0028EE
:10A430003FF446AE4DE6244B1B4A1B881C4C10884B
:10A440005FE7194B13211888FFF7B6FD38E6234B59
:10A4500002221A7034E60A2007F086FE74E7204BC9
:10A4600018E7114B1F4918881C4C00230B704FF63E
:10A47000FF72174990420B703FF420AE2378032BF4
:10A4800008D0012B7FF41AAEFFF79AFD16E608F00C
:10A4900005FF85E61321FFF78FFD30F008033FF439
:10A4A0000DAE08F0FBFE09E61C450020CC51002053
:10A4B000925100208851002099510020965100208F
:10A4C000D0510020D451002016520020F48D0300FA
:10A4D000F9510020E48D0300DC8D03009851002029
:10A4E000D8510020F85100209451002070B5124C32
:10A4F000227802B170BD11490B7862F3000362F358
:10A50000410362F38203A0265025782208464E803C
:10A510008D800B70CA80FFF751FD48B9084D09487E
:10A52000094A012300212B7023700380118070BD24
:10A5300008F0B4FEF2E700BF98510020D847002091
:10A54000F851002092510020CC51002070B5434BAF
:10A5500043491A6886B006A8002340F8142D5022FB
:10A5600008F036FB002875D106AC002344F8103DF6
:10A57000204608F0A7FB002869D10125002303A984
:10A580002846029A0393049305938DF80C50FFF725
:10A5900023FD002858D1002308260125029A0393A1
:10A5A00003A94020049305938DF80D608DF80E509B
:10A5B000FFF712FD002844D1002301261725029A37
:10A5C000039303A92320049305938DF80C60ADF841
:10A5D0000E50FFF701FD88BB0023029A039303A9E5
:10A5E000A02004930593FFF7F7FC20BB002301256F
:10A5F0004FF4A07603A9029A0393202004930593B5
:10A600008DF80C508DF80E50ADF81060FFF7E4FC9B
:10A6100070B9204608F060FB38B9124808F026FBF4
:10A6200008B108F03BFE06B070BD08F037FEF4E755
:10A6300008F034FEEDE708F031FED7E708F02EFE13
:10A64000CAE708F02BFEB7E708F028FEA3E708F0FA
:10A6500025FE92E708F022FE86E700BFD88D0300B2
:10A660006C470020DD9F0200104B1149188810B57F
:10A670004FF6FF720F4C0023904223700B7005D0F1
:10A680000D4B1B78032B06D0012B00D010BDBDE86D
:10A690001040FFF795BC1321FFF78EFC30F0080344
:10A6A000F4D0BDE8104008F0F9BD00BF1C45002003
:10A6B000F8510020F95100209851002000B50C4BB2
:10A6C0000C4A1B8885B0ADF80A100390ADF806302F
:10A6D00010880123002201A9ADF808208DF804306C
:10A6E000FFF778FC08B108F0D9FD05B05DF804FB70
:10A6F000965100201C450020012905D0022902D1D5
:10A70000042007F031BD7047032007F02DBD00BFC6
:10A7100030B583B04FF480730021234801930BF0D0
:10A720007FFF00283DD1214D214C0FCD0FC42B6858
:10A7300020492148236008F09FFD08B108F0AEFDD4
:10A740001E4D1F4C0FCD0FC42B681E491A482360A5
:10A7500008F092FD08B108F0A1FD1B4D1B4C0FCD78
:10A760000FC42B681A491448236008F085FD08B10E
:10A7700008F094FD01AA17490F4808F03FFD08B101
:10A7800008F08CFD019913480BF084FF30B90CF0F0
:10A790002BF808B108F082FD03B030BD08F07EFD53
:10A7A000F5E708F07BFDBEE7F9A602000C8E03007A
:10A7B000E04700202045002068450020208E03004F
:10A7C000F447002038450020348E0300084800205C
:10A7D000504500201852002070B4154B1548002237
:10A7E0000421182601250A24C3F8606583B0C3F844
:10A7F0000055C3F80425C3F80C15C3F80845C3F881
:10A800001425D3F814450194019D0224C3F8104582
:10A81000C3F80022C3F80023C3F82005C3F82415A9
:10A82000C3F82825C3F82C2503B070BC704700BFBF
:10A8300000C001407C450020F0B4174B174C0022AB
:10A8400001200421062707264FF4FA75C3F8607526
:10A8500082B0C3F86465C3F80005C3F80405C3F803
:10A860000C15C3F80855C3F81425D3F81405019046
:10A87000019D0220C3F81005C3F80022C3F800238D
:10A88000C3F82045C3F82415C3F82825C3F82C25A0
:10A8900002B0F0BC704700BF0010024074450020B9
:10A8A000012805D90B4B0122C3F800259A60704797
:10A8B0004FF0A043074A10B44FF4C0704024002169
:10A8C000C3F80845C3F80C055DF8044BC2F8001541
:10A8D000704700BF00100240831E612B04D9094B52
:10A8E0000022C3F800257047064B074910B4012227
:10A8F000441EC3F80025C3F808050C809A605DF873
:10A90000044B704700C001407C4500202348036889
:10A91000FBB130B5224C234D22682968FF3285B047
:10A92000226049B3FF31FF2B29600291009219D8B0
:10A93000DBB200298DF8043008BF002300228DF817
:10A940000C3002600022694617480AF047FD05B046
:10A9500030BD1649164A08684FF0A041C1F80805F5
:10A9600013707047A3F1FF02FF2302608DF80430DB
:10A9700059B18DF80C30E5E7FF2B0291009208D910
:10A98000FF3BFF2203608DF8042000238DF80C307C
:10A99000D8E78DF804300B46D0E700BF28480020E8
:10A9A0001853002034530020808E030030530020C1
:10A9B0002C48002008B5064A064B074907480AF00C
:10A9C0002DFC00B908BDBDE8084008F067BC00BF19
:10A9D0000DA902001C530020888E0300808E030006
:10A9E00001480AF0C5BC00BF808E0300F0B51C4DC5
:10A9F00085B02C7804F0FF06002CFAD1194F4FF0E7
:10AA0000A0443B60FF2A4FF001072F70C4F80C35BB
:10AA10000291009013D8D2B20029134B8DF8042074
:10AA200008BF00228DF80C201E60002269460F48E6
:10AA30000AF0D4FC08B108F031FC05B0F0BD0C4BB5
:10AA4000094D18600B1C0B4C18BF0123FF3A5B42E9
:10AA5000FF202A608DF80C3021608DF80400E4E7B7
:10AA60002C4800203053002028480020808E03000E
:10AA70001853002034530020F0B5154D85B02B78C5
:10AA800003F0FF04002BFAD1124F4FF0A043012630
:10AA9000FF293A602E70C3F80C2502948DF80C4003
:10AAA00000900CD8CBB2002269460B488DF80430D8
:10AAB0000AF094FC08B108F0F1FB05B0F0BD074BBB
:10AAC000074A084D1C60FF3928601160FF23EAE740
:10AAD0002C48002030530020808E03003453002087
:10AAE0002848002018530020014B1878704700BFF9
:10AAF0002C48002010B50B4A0B4C12682368013219
:10AB000023F00103236003D040F2025007F02CFB36
:10AB100023689B0700D410BD40F20150BDE81040EF
:10AB200007F022BB5854002038530020F0B501280C
:10AB300083B02BD0022827D11C4F3E68711C23D034
:10AB40001B4C2368DA07FCD41A4D236828460623D9
:10AB50004FF4005201212B70FFF78EFFD721330AEB
:10AB60004FEA164E4FF40052297028460421AB706C
:10AB7000EE7085F801E0FFF77FFF23684FF0FF32AA
:10AB800043F0020323603A6003B0F0BD084B1B683A
:10AB90009B07F9D502AB7A2203F8042D01464FF446
:10ABA00000521846FFF768FF03B0F0BD585400206C
:10ABB0003853002044540020F8B5174C9F252146F7
:10ABC00020464FF4005304222570FFF70FFFFFF7D4
:10ABD0008BFF04460028FAD1104B114AB3F800E06D
:10ABE0009978104F104E114DA2F800E04FF0FF334E
:10ABF00091700F48336040F20512FF212B603C70CA
:10AC0000FEF7A6FC0B4B0C4A1C6021460B48BDE826
:10AC1000F84008F03BBF00BF4454002045540020DA
:10AC20004C5400205454002050540020585400200C
:10AC30003C53002038530020F5AA0200988E0300F0
:10AC4000F8B5114C06462368DB07FCD40F4D23688A
:10AC5000284606234FF4005201212B70370CFFF7D2
:10AC60000BFF330A4FF0D70E28464FF40052042151
:10AC7000AB70EE7085F800E06F70FFF7FDFE2368A3
:10AC800043F002032360F8BD3853002044540020F1
:10AC90002DE9F0472E4C82B006460D4690462368BB
:10ACA000DF07FCD4236898071CD40320310C330A37
:10ACB00028706970AB70EE7008F104024FF4005315
:10ACC00029462846FFF792FEFFF70EFF0028FBD12A
:10ACD00023689B0703D540F2015007F045FA02B004
:10ACE000BDE8F0871B4F4FF0050E394638464FF44C
:10ACF0000053022287F800E0FFF778FEFFF7F4FE2A
:10AD00000028FBD17B78D90704D4236823F0020301
:10AD10002360CAE702A8752300F8043D4FF40052EF
:10AD20000121FFF7A9FEDFF82CA04FF005094FF431
:10AD3000005302225146074887F80090FFF756FE5D
:10AD4000FFF7D2FE0028FBD17B78DA07EFD4ACE71F
:10AD500038530020445400202DE9F047314C82B094
:10AD600007460E4690462368D807FCD423682E4D2C
:10AD7000990721D406234FF4005201212A482B7051
:10AD8000FFF77AFE3B0A3A0C022008F1040130700A
:10AD90007270B3703046F7704FF40052FFF76CFEDC
:10ADA0002368224843F0010300222121236008F098
:10ADB0007FFE02B0BDE8F0874FF0050E2946284619
:10ADC0004FF40053022285F800E0FFF70FFEFFF773
:10ADD0008BFE0028FBD16B78DA0704D4236823F0BC
:10ADE00002032360C6E702A8752300F8043D4FF470
:10ADF00000520121FFF740FEDFF82CA04FF00509BB
:10AE00004FF4005302225146074885F80090FFF79F
:10AE1000EDFDFFF769FE0028FBD16B78DB07EFD46F
:10AE2000A8E700BF385300204454002030480020D9
:10AE300038B5084C0525214620464FF40053022220
:10AE40002570FFF7D3FDFFF74FFE0028FBD1607898
:10AE500038BD00BF4454002038B5094C4FF40053AE
:10AE60000222B925214620462570FFF7BFFD054B7C
:10AE700000221A70FFF738FE0028FBD138BD00BF52
:10AE8000445400204154002040F2022007F06CB9E5
:10AE9000014B1878704700BF84450020024A138890
:10AEA00018441080704700BF504800202DE9F0473B
:10AEB000234D244FDFF89C90234E08244FF0010AC5
:10AEC0004FF0000806E02B7833BB0223013C89F8E1
:10AED00000301ED0002085F800A087F80080FEF723
:10AEE0003FFB31460120FEF7FBFC0028EBD0272377
:10AEF00018463B70FEF734FB31460120FEF7F0FCAC
:10AF00000028E0D00223013C85F8008089F8003059
:10AF1000E0D12046BDE8F0870C4A0D48002108F03A
:10AF2000B5FD48B94FF4007007F01EF900232878EA
:10AF300089F80030BDE8F08708F0B0F9F2E700BF0B
:10AF4000844500207C480020C08E030089AE0200AA
:10AF5000BC8E03005C540020014B1868704700BF92
:10AF600080480020014B1868704700BF74480020DB
:10AF700008B51D4B18680CF0C1FE15A3D3E90023DA
:10AF80000CF032FF9FED141B41EC100B0BF064FC36
:10AF9000002053EC102B15490CF072FD10A3D3E9DF
:10AFA00000230CF021FF0DF0CFF911490B6800B21E
:10AFB000C0EBC302002AB8BF5242082A0D4AC8BFDC
:10AFC000C3101088CCBF0B601BB2181A00B208BDAA
:10AFD0000886DEC9742B503E6C45D9CC955BC83FC2
:10AFE0000000000040A51541744800200000F03F1B
:10AFF000784800205048002008B5254B1B782BB915
:10B00000244A254B12881A80234808BD234B186810
:10B010000CF074FE18A3D3E900230CF0E5FE9FEDBD
:10B02000181B41EC100B0BF017FC002053EC102BFD
:10B030001B490CF025FD14A3D3E900230CF0D4FE2A
:10B040000DF082F917490A6800B2C0EBC203002B69
:10B05000B8BF5B42082B144B1B88CABFC21012B288
:10B060000A60D21A11490C4812B20DF023FA0A48AC
:10B0700008BD00BFAFF300800886DEC9742B503EC8
:10B080006C45D9CC955BC83F0000000040A5154138
:10B0900084450020B88E03006054002074480020CE
:10B0A0000000F03F7848002050480020F4AF030033
:10B0B00070B52B4C237805464BB1012B06D10228E5
:10B0C00009D0032806D10023237070BD70BD00286D
:10B0D0003AD070BD70BD234C254629460520FEF7A9
:10B0E000B1FA23789B06F8D42279E078A3786178C6
:10B0F0001D4D1E4E2C6842EA002040F2E24243EA17
:10B10000012102FB00F24FF47A73121403FB01F3E6
:10B11000A2F5C87203F18273326003F5004334B1C3
:10B12000A20802EB540202EBD40404EBD30310494F
:10B130002B600120FEF7D4FB00224FF480410D4824
:10B14000BDE8704008F0B4BC02464FF480410948A5
:10B1500008F0AEFC084A01231570237070BD00BFD3
:10B160005C5400206854002074480020804800206F
:10B17000C08E0300544800205D54002038B5424C76
:10B180002378012B33D00FD3022B0CD13F4A1378F5
:10B19000591E1170002B37D13D4B1B78834267D06D
:10B1A0000023237038BD38BD313838281ED8DFE879
:10B1B00000F03C41464B1D50551D5A1D1D1D1D1DC7
:10B1C0001D1D1D1D1D1D1D1D1D1D1D1D1D1D1D1DAF
:10B1D0001D1D1D1D1D1D1D1D1D1D1D361D1D1D1D86
:10B1E0001D1D1D1D1D1D1D1D1D1D670038BD852834
:10B1F000D6D8284B254D2849C0B203F8010B0222AE
:10B2000028700B60227038BD2349214B0A68C0B2F8
:10B21000541C0C6010701A781044187038BD1C4A09
:10B22000002101231170237038BD0F20BDE8384084
:10B2300006F09ABF1020BDE8384006F095BF1120F7
:10B24000BDE8384006F090BF0E20BDE8384006F05B
:10B250008BBF1220BDE8384006F086BF1720BDE83E
:10B26000384006F081BF1920BDE8384006F07CBFA9
:10B27000094A12684FF44070137006F075FF8FE7AB
:10B28000BDE8384002F066BF025500207854002027
:10B29000085500207C5400200455002050BB08B500
:10B2A000154A5378A03B042B04D8DFE803F00C14B4
:10B2B00003041B0008BD9078FFF70EFB0F48BDE8A4
:10B2C000084008F0D9B811780D480139C9B2BDE875
:10B2D000084002F013BF117809480139BDE8084061
:10B2E00002F022BF9078FFF7DBFA0648BDE808407D
:10B2F00008F0C2B8704700BF7C540020A8AE03001D
:10B300007E540020B0AE03008BDF704732DF704701
:10B31000002006F029BF00BF08B5044A04480021F8
:10B3200008F0B4FB034B00221A7008BD11B30200F1
:10B3300050B00300605600202DE9F04F20288DB05A
:10B34000044612D94FF0A042B14BD2F810251A4250
:10B3500000F08D8023286ED0AE4D2B78002B63D16A
:10B3600000232B700DB0BDE8F08FAB4E3378252B4A
:10B37000F2D8DFE813F05B02C800B2001501EF005D
:10B380000301DC00330411045F04310390037503EF
:10B3900085031502E401D901C30197016B013D0149
:10B3A000320127010604FB03ED03AF039E02930263
:10B3B00088027D02EC02DB020A02FF01F70225028D
:10B3C0004902964C94F91E30002BC5D0944B1D6851
:10B3D0000F21002DE17742F3CC800A2D42F3C1808A
:10B3E00040F63D2140F28F20232DC8BF0146013594
:10B3F00000228C481D6008F05BFB94F91E30012B85
:10B4000002F0A380022B42F0948062686069138886
:10B41000E16803448B42A8BF0B4613801046A36823
:10B420007C4D984701232B7006F0D0F900232B7038
:10B430000DB0BDE8F08F784E3378092B8CD9FFF72B
:10B440000BFD02F02DFF0BF0E5F9002841F084849C
:10B45000704DFEF7E1FBFEF721FCFEF761FCFFF704
:10B4600003F9FFF7BDFA25222B78327076E700202A
:10B4700006F0A4F96C4A0121002003F0E1FF6B4BB8
:10B4800000211A68012003F0DBFF694B694993F83A
:10B490006C2004A80DF00EF804AA0021022003F08D
:10B4A000CFFFFFF7F5FC90B90146634A032003F094
:10B4B000C7FF584D06F0BAF901232B70FEF72CFD9B
:10B4C000FEF70AFD544A2B780021117046E75B4ACB
:10B4D0000021032003F0B4FFEBE7022801F07084A1
:10B4E00011287FF439AFFF2006F068F91420FFF728
:10B4F000F3F9484D40F2034006F036FE01220323E3
:10B500002A70337090E7102801F0C685112801F0E9
:10B51000BB8500287FF420AFFFF7BAFC002841F07C
:10B5200048873C4D01232B7006F050F97EE70F2829
:10B5300001F05A8411287FF40FAF414A354D13882A
:10B54000DB439BB203F002001380FFF7A9F901234C
:10B550002B7069E7112805D0122801F08A840F2882
:10B560007FF4FAAE364A2B4D1388DB439BB2D8B238
:10B57000138006F023F901232B7055E70F2801F003
:10B580004A8411287FF4E8AE2D4A224D1388DB430C
:10B590009BB2D8B2138006F0F1F901232B7043E778
:10B5A0000E287FF4D9AE0020FFF796F95523244AE0
:10B5B000184D1380184606F001F9012204232A7061
:10B5C000337031E7A0F10F04032C3FF6C5AEDFE87E
:10B5D00014F0C905DD057B04C70BA0F10F04032C93
:10B5E0003FF6BAAEDFE814F0110514060005A50D0C
:10B5F00012287FF4B1AE134B134993F90000054DA7
:10B6000003F0E4FF01220A232A7033700CE700BF25
:10B61000200080003E56002085450020185600205E
:10B620004456002084480020B8AE030074B10300E3
:10B63000BC560020C4AE0300D4AE0300CCAE030061
:10B640003856002060560020FC08040012283FF6FF
:10B6500068AF01A353F820F0EDC2020023B5020049
:10B6600023B5020023B5020023B5020023B5020072
:10B6700023B5020023B5020023B5020023B5020062
:10B6800023B5020023B5020023B5020023B5020052
:10B6900023B50200CFC2020023B5020035C4020068
:10B6A000BBC2020012283FF657AE01A353F820F0A8
:10B6B000FDC3020059B3020059B3020059B302009E
:10B6C00059B3020059B3020059B30200D7C30200B4
:10B6D00059B3020059B302008FC3020059B30200EC
:10B6E00059B3020059B3020059B3020059B3020022
:10B6F00059B3020059B30200E3C3020010287FF4DB
:10B700002BAEFFF735FCCA4BCA4DB3F90030C01A57
:10B71000FFF7C4FBC84B93F9000005F0BDFB012205
:10B720000B232A7033707FE6A0F10F04032C3FF641
:10B73000F8AEDFE814F0BB029A02BB021700002843
:10B7400001F01B8312287FF4ECAEBC4B93F9003060
:10B75000022B01F0E285032B01F0DB85012B01D1E7
:10B76000FEF75AFAB44B93F9000005F095FB0B2352
:10B770003370D6E6A0F10F04032C3FF6EDADDFE801
:10B7800014F06D02DA006D02DA00A0F10F04032C50
:10B790003FF6E2ADDFE814F05402CF005402CF00D0
:10B7A000A0F10F04032C3FF6BCAE01A353F824F024
:10B7B000DBC00200E9BE02001DC0020065B7020046
:10B7C000092801F0BB83122801F0648308287FF464
:10B7D000C3AD9B4B9B489B6F964DD3F81C11012228
:10B7E00003F076FD00224FF4C031974808F060F96D
:10B7F000964B002710240A20012123229F779C8347
:10B800009861297032700FE60E287FF4A5ADFFF71E
:10B81000D1F802F09FFC8A4B864D93F86C0002F041
:10B8200069FD8B4B8B4993F90000E9E6841F0C2CD2
:10B830003FF692AD01A353F824F000BFBDC402004F
:10B8400059B3020059B3020059B3020059B30200C0
:10B8500059B3020059B3020059B302007FC302007A
:10B8600045C3020059B3020059B3020001C30200EC
:10B87000A0F10F04032C3FF66FADDFE814F00A05CA
:10B8800014040304960EA0F10F04032C3FF664ADDC
:10B89000DFE814F08C04950459033D0CA0F10F046B
:10B8A000032C3FF659ADDFE814F07B036E035F0312
:10B8B0005B0A604D01232B7019283FF6B5AD01A33B
:10B8C00053F820F0F7C8020029B4020029B402009E
:10B8D00029B4020029B4020029B4020029B40200EC
:10B8E00029B4020029B4020029B4020029B40200DC
:10B8F00029B4020029B4020029B4020029B40200CC
:10B90000E9C80200C5BC0200C7C80200CDBC0200E5
:10B9100029B4020029B4020029B4020029B40200AB
:10B92000E5C4020029B40200E5C40200102802D0D8
:10B9300012287FF411AD484B484993F900003D4D62
:10B9400003F044FE01221F232A7033706CE5A0F13E
:10B950000F04032C3FF600ADDFE814F08B037F03E8
:10B960006E03020A19283FF6F7AC01A353F820F042
:10B970000BC5020059B3020059B3020059B30200CB
:10B9800059B3020059B3020059B3020059B302007F
:10B9900059B3020059B3020059B3020059B302006F
:10B9A00059B3020059B3020059B30200C3B30200F5
:10B9B000F7C402008DC60200F7C4020059B30200AA
:10B9C00059B3020059B3020059B302003DC9020045
:10B9D00059B302003DC90200441E112C3FF6BCAC15
:10B9E00001A353F824F000BF71C6020059B302004E
:10B9F00059B3020059B3020059B3020059B302000F
:10BA000059B3020059B3020059B3020059B30200FE
:10BA100059B3020059B3020059B3020059B30200EE
:10BA2000B5C802004FC6020073C5020043C9020038
:10BA30005A5600203E560020485600200E55002041
:10BA4000BC56002000B00300844800201856002097
:10BA500060560020FC0804003D5600201809040030
:10BA6000A0F10F04032C3FF677AC01A353F824F0A8
:10BA70001DBE020095BD02003DBE0200F7B50200EA
:10BA8000A0F10F04032C3FF64CADDFE814F0E10108
:10BA9000660157014A01C41F0B2C3FF642AD01A3BA
:10BAA00053F824F06BC502006BC5020023B50200F9
:10BAB00023B5020023B5020023B5020023B502001E
:10BAC00023B5020059C5020041C5020027C5020086
:10BAD000BBC20200BB4D01232B7019283FF6A4AC5A
:10BAE00001A353F820F000BFF5C5020029B40200FD
:10BAF00029B4020029B4020029B4020029B40200CA
:10BB000029B4020029B4020029B4020029B40200B9
:10BB100029B4020029B4020029B4020029B40200A9
:10BB200029B40200E9C50200CDBC020095C502009F
:10BB3000CDBC020029B4020029B4020029B40200DD
:10BB400029B40200E5C4020029B40200E5C40200E1
:10BB50009C4D0123A0F10F042B70032C3FF664AC25
:10BB6000DFE814F0D600CA00BB00B400A0F10F0457
:10BB7000032C3FF6D6ACDFE814F0750357038203BD
:10BB80007501A0F10F04032C3FF6E6ABDFE814F0DB
:10BB9000180285017401100D8A4D012704282F70A9
:10BBA00001F0A9820F2801F0978203287FF4D8AB17
:10BBB000854C864A0021384603F042FC238884499C
:10BBC0003B449BB21A4604A823800CF073FC04AAE1
:10BBD0000021022003F034FC2F7025E412283FF6E8
:10BBE000BBAB01A353F820F08DC8020059B302008B
:10BBF00059B3020059B3020059B302006BC70200E7
:10BC000059B3020059B3020059B3020059B30200FC
:10BC100059B3020059B3020059B3020059B30200EC
:10BC200059C702001DC7020059B3020059B30200F0
:10BC3000EFC60200172801F02981624DFFF790BB83
:10BC4000644B604D9B6F196BD868012203F040FB79
:10BC5000012220232A703370FFF7E6BB5D4B594D5C
:10BC60009B6F0122196BD869F0E75B4B93F90030A9
:10BC7000002B7FF456ACFFF77BF9584B584A5A60BB
:10BC8000108058499960104602229A7711210122AA
:10BC9000554D1D6142F228371024DF609C83996165
:10BCA0005A6106F0D7F8232333703AE44A4A4F49E1
:10BCB00092F90030B3FA83F35B091846137003F06E
:10BCC00085FC2EE4454A4A4B12881A801523102021
:10BCD0003370FFF731FBFFF743BB464A137801335C
:10BCE0005BB2032BC8BF002313701846424903F010
:10BCF0006DFC2B78FFF732BB3E4B93F90030032BE2
:10BD00003FF692ABDFE813F0B1069A0684066C06A4
:10BD1000384B1878013840B20028B8BF032018709B
:10BD2000E4E7364B364993F9000003F04FFC354AFF
:10BD300001210A2311703370FFF7F3BB254B93F8F1
:10BD40006A20032A01F28B820132D2B210B283F848
:10BD50006A2003F0C1FEFFF7E4BB1E4B2A4993F8AB
:10BD60006A209B6F8A56294853F82210012203F05B
:10BD7000AFFA00224FF4C031254807F099FE174B67
:10BD8000002410200A2123229C7798839961327025
:10BD9000FFF7C7BB1F4B93F90040002C7FF4DCAAD0
:10BDA0001D4B084DB3F9000005F078F822464FF41A
:10BDB0008041174807F07CFE13222B783270FFF782
:10BDC000CDBA00BF3E56002038560020B8AF030061
:10BDD0002CAF0300BC5600203B5600201856002014
:10BDE0005A560020551E03003EFEFFFF08BC03000C
:10BDF000AC5600203A56002040090400605600204E
:10BE0000FC080400B85600200009040014B0030028
:10BE1000844800205F560020A4480020B64B1878C4
:10BE2000013840B20128D8BF02201870B349B44D80
:10BE300003F0CCFB01232B70FFF7F6BAAE4A137860
:10BE400001335BB2022BC8BF002313701846EDE725
:10BE5000AC4B93F86A20002A01F0F081013AD2B28B
:10BE600010B274E7A84BA94993F9000003F0AEFBA8
:10BE700016233370FFF755BBA5490A780132D2B2B9
:10BE800053B2052A0B7041F2EE8100230B70184665
:10BE9000A04903F09BFBFFF744BB9D4B93F9003097
:10BEA000002B41F0CF81974A9B4982F87630916709
:10BEB000934D01232B70152310203370FFF73CFAAC
:10BEC00001232B70FFF7B0BA8F4A137801335BB2AE
:10BED000072B137041F379810023137018468B49A7
:10BEE00003F074FBFFF71DBB8C4D8D4A0121002030
:10BEF00003F0A6FA95F900208A49824B8A569B6F77
:10BF0000002153F82220012003F09AFA864A0021EA
:10BF1000022003F095FA0024844B214603201C7074
:10BF200002F090FA22464FF4C031814807F0C0FD7C
:10BF300095F90030032B00F21C85DFE813F014059F
:10BF400018054E05AD057B4A137801335BB2032B10
:10BF5000C8BF0023137018467749694D03F036FBBC
:10BF600001232B70FFF760BA744B1878013040B290
:10BF70000428187041F3518100201870704903F0B3
:10BF800025FBFFF7CEBA6B4B6B4993F900005C4D74
:10BF900003F01CFB01221D232A703370FFF744BA03
:10BFA000664B1878013840B200281870C1F28A82B6
:10BFB0000128E3DD0138634903F008FBFFF7B1BA5C
:10BFC000534A1378013B5BB2002B1370C1F2E98135
:10BFD00001F06982032B01F3E6815B4901201944DA
:10BFE00003F0F4FAFFF79DBA584A137801335BB2B5
:10BFF000032BC8BF0023137018465549404D03F06A
:10C00000E5FA01232B70FFF70FBA504B187801386F
:10C0100040B20028B8BF03201870EEE73F4A92F9FB
:10C020000030042B3FF77DAA01335BB21846137032
:10C0300003F09AFDFFF775BA464A137801335BB2F5
:10C04000032BC8BF00231370184643492C4D03F03F
:10C05000BDFA01232B70FFF7E7B93E4B93F900308F
:10C06000032B3FF65EAADFE813F0AC04A1049404AE
:10C070008804384B1878013840B20028B8BF032034
:10C080001870E2E735490A780132D2B253B2072A72
:10C090000B7041F2C78000230B701846304903F043
:10C0A00095FAFFF73EBA2D4B93F90030002B41F083
:10C0B0009980144A184982F876309167104D01230F
:10C0C0002B70224B224993F9000003F07FFA1522CE
:10C0D000012332702B70FFF7A7B9104A92F9003094
:10C0E000002B7FF71EAA013BDBB21846137003F04A
:10C0F0003BFDFFF716BA00BF5F5600200C09040095
:10C100003E560020BC56002040560020280904005E
:10C110003F56002020090400C0B203000E55002045
:10C1200024B003001009040030B00300585600206A
:10C13000844800200C55002034090400A456002037
:10C1400038090400390904001F0904005D56002065
:10C15000300904003D560020180904004156002013
:10C16000400A0400B94A1378013B5BB2002B1370FC
:10C17000C1F2668101F07081052B01F36381B4493E
:10C180000120194403F022FAFFF7CBB9AF4B93F922
:10C190000030072B3FF6C5A9DFE813F0CE05B70541
:10C1A000A10597058D05760562055405A94B1878FC
:10C1B000013840B20028B8BF03201870CCE6A54B68
:10C1C00093F90020012A7FF4ACA9A34BA34993F96A
:10C1D0000040A34BDFF8E0E25A611620142212FB64
:10C1E00004020A445A60104610211C2240F6C4176B
:10C1F00040F214550224C3F808E0DF601D619C770B
:10C2000099839A6105F09AFD23233370FFF789B96A
:10C21000944B93F90030032B3FF683A9DFE813F02A
:10C220006A045B0449043F048F4B93F90020002A01
:10C2300001F09F80012A7FF474A9894B8B489A777B
:10C240005A61102115228A4F5860002502249F60F0
:10C250001D61DC6099839A6105F0DAFD2323337058
:10C26000FFF75FB9804B1878013840B20028B8BF9B
:10C27000012018707F4903F0A9F9FFF752B97A4AF3
:10C28000137801335BB2012BC8BF0023137018462B
:10C29000F0E7794A1378013B5BB2002B1370C1F2CF
:10C2A000C78001F01381052B01F3C480734901207D
:10C2B000194403F08BF9FFF734B9714B714993F9C5
:10C2C000000003F083F90A233370FFF72AB96E4C9C
:10C2D0002088013800B200282080C1F2C0800128E7
:10C2E00001F0BF8004F0DAFDFFF71BB900224FF424
:10C2F0008041664807F0DCFB634BB3F90000F1E7CF
:10C30000564C94F86C30002B3FF40BA9013B604A6B
:10C31000DBB284F86C30D35C8DF80D3003A8812338
:10C3200002218DF80C3001F0E9FE94F86C20594997
:10C3300004A80CF0BFF804AA0021022003F080F842
:10C34000FFF7EFB8002005F039FAFDF7D5FD524BA5
:10C3500001241C7001F050F9FEF79AFD002800F04E
:10C360007987002021464D4A03F06AF8002005F045
:10C37000FBFE4B4D01232B703370FFF755B8374C44
:10C3800094F86C30082B3FF6CCA80133BFE73F4848
:10C39000434D07F0E3FB0024424A434B1470204610
:10C3A0001C7005F00BFA2D4B9B6F2046D3F84421EF
:10C3B000012103F045F821463C4A022003F040F8F1
:10C3C0003B4A2146032003F03BF8012224232A7034
:10C3D0003370FFF729B82D48314D07F0BFFBFFF749
:10C3E00099B9344B29482E4D1E221A7007F0B6FB1E
:10C3F0000020FEF7A1FF2B78FEF7B0BF2D4B1A7877
:10C400000132D2B21A70154B1D2A9B6F00F2F286D0
:10C41000D3F8201104A80CF04DF8002204A910460E
:10C4200002F056FF00224FF40041184807F040FB8D
:10C43000FFF777B8144C2088013000B20128208023
:10C4400041F31880002020804CE700BF40560020B8
:10C45000270904000C550020A4560020BC560020DB
:10C46000185600205D5600203C5600202A57002018
:10C47000111E03001C090400415600203F0A04005D
:10C4800060560020FC080400A448002084480020D6
:10C490000CBC0300C4AE0300B8560020DCAE0300A1
:10C4A0003E5600205C5600200D550020E0AF0300F2
:10C4B000E8AF0300585600203D1D0300BE48BF49A9
:10C4C00043780278C4788078BD4D8DE8110004A8C7
:10C4D0000BF0F0FF04AA0021012002F0B1FF2B783D
:10C4E000FEF73CBFB74807F039FBB74A2B7800216D
:10C4F0001160FEF733BFB54CA08BB14D05F034FE93
:10C50000A36933702B78FEF729BFB04C94F91E3025
:10C51000002BF1D094F91F00A94D80B205F024FE44
:10C520002B78FEF71BBFAA4A137801335BB2032BAB
:10C5300000F3EA86137018B204F0AEFCFEF7F1BF08
:10C54000A34B93F90030032B3EF6EBAFDFE813F07B
:10C5500049034003360320039D4B1878013840B24D
:10C560000028B8BF03201870E6E7994B93F9000044
:10C57000E2E7984A137801335BB2032BC8BF00236C
:10C580001370184694498E4D03F020F801232B7048
:10C59000FEF74ABF8D4B1122DA7701F00DFA8F4A70
:10C5A00092F8733092F8741092F8750043EA012300
:10C5B00043EA004005F0E8FC834B1C68002C40F384
:10C5C00090810A2C40F39F8540F63D2140F28F2058
:10C5D000232CC8BF0146013400227A481C6007F0B2
:10C5E00067FA2B78FEF7BABE784B0F22DA7701F0A4
:10C5F000A7F9D4E7744B1C68002C40F372870A2C0F
:10C6000040F3268740F63D2140F28F20232CC8BFFF
:10C610000146013400226B481C6007F049FA6B4B5D
:10C6200093F91F30112B00F0588701F089F96B4AFC
:10C6300092F8733092F8741092F8750043EA01236F
:10C6400043EA004005F0A0FC2B78FEF787BE614B63
:10C6500093F90030032B3EF664AF01A252F823F0A9
:10C6600027CC020065B7020009CC0200F5CB02001E
:10C67000FDF768FB0023574A5749514D1370184680
:10C6800002F0A4FF01232B70FEF7CEBE4F4C94F9AD
:10C690001E30002B3EF460AE4B4B1D681121002D67
:10C6A000E17740F362870A2D40F3278740F63D216A
:10C6B00040F28F20232DC8BF01460135002241489A
:10C6C0001D6007F0F5F994F91E30012B00F0258765
:10C6D000022B40F0168762686069138821691B1A73
:10C6E0008B42B8BF0B4613801046FEF798BE3C4BFA
:10C6F00093F9002012F15A0F02DB053A52B21A7078
:10C7000038492F4D04A80BF0D5FE04AA01210020C2
:10C7100002F096FE01232B70FEF786BEFEF7F4FDB5
:10C720000AF062F8002840F0D4862F4B244D0024F4
:10C7300020461C8005F042F820462C4A012102F0D8
:10C740007FFE2B4A2146012002F07AFE01220823B7
:10C750002A703370FEF768BE214B93F90020002A3F
:10C76000CEDC053252B21A70CAE7DFF890901C4B4B
:10C7700099F90E2093F9003093423EF7EDAD04AEE7
:10C780001C4930460BF096FE32460021012002F093
:10C7900057FE194A0021022002F052FE164A0021DB
:10C7A000032002F04DFE99F80FA05FEADA0A18BFE5
:10C7B00000273ED100F068BE60510020E8AE0300C3
:10C7C0003E56002084480020445600201856002081
:10C7D0004856002060560020FC080400BC5600208B
:10C7E0005E56002098AF030038560020A4AF030027
:10C7F000ACAF030064AF030070AF03009C51002096
:10C80000062B80F0DB84023B012B0CD8CA7C8B7C8E
:10C81000C14943EA022230460BF04CFE3246002169
:10C82000022002F00DFE08F101084744BA4540F22B
:10C830002B8609EB07014B7C91F81080072BDFD981
:10C84000092B40F29084FF2BEDD1202200213046AD
:10C85000FCF77EFEB14B1B68338007F112051B0C01
:10C860008DF812304D440DF113040DF11B0B2046D1
:10C8700015F8012BAA4902340BF01CFE5C45F6D1D9
:10C8800032460021032002F0DBFDCCE7A54AA64D8D
:10C890000021012002F0D4FDA24A0021022002F072
:10C8A000CFFDA04A0021032002F0CAFD01232B7016
:10C8B000FEF7BABD9D4B1878013840B20028B8BFCA
:10C8C000032018705EE69A4C11232046E37701F0AE
:10C8D000B3F8204605F080FB964B1C68002C3FF710
:10C8E00070AE4FF4803176E6914C0F232046E3770B
:10C8F00001F08EF8EDE78F4B1C68002C40F3F985B2
:10C900000A2C40F3D78540F63D2140F28F20232C9E
:10C91000C8BF01460134002287481C6007F0C8F8F0
:10C92000834890F91F30112B00F0DF8501F070F87B
:10C930007F4805F051FB2B78FEF710BD7E487A4DFD
:10C94000D1E57E4B784DB3F9000004F0A7FA002240
:10C950004FF48041784807F0ABF8012213232A7086
:10C960003370FEF761BDFDF787F9FDF7C7F9FDF7F5
:10C9700041F90F233370FEF7D4BD714B986F836973
:10C9800000931C300FC805F00FF822233370FEF718
:10C99000C8BD6B4A634B906F826900920C3007C828
:10C9A00005F002F821233370FEF7BBBD644B6549E7
:10C9B0009B6F0122986802F08BFC20233370FEF7F6
:10C9C000B0BD5F4B604A9B6F11685868012202F04E
:10C9D0007FFC20233370FEF7A4BDFDF74DF9C8E7B7
:10C9E000534B5A4999606FF001021A6158485860D8
:10C9F0000122162102271024DF609C8399619A7717
:10CA00005A6105F07DFA232333702B78FEF7A6BC1C
:10CA1000474B504A9A6050485860012216216E27B1
:10CA20001024DF609C8399619A771A615A6105F03E
:10CA300051FA232333702B78FEF790BC3C4B4749C7
:10CA4000996064221A614648586001221621DC2749
:10CA50001024DF609C8399619A775A6105F024FA6B
:10CA6000232333702B78FEF779BC314B3D49996015
:10CA700014221A613C48586001221621A027102474
:10CA8000DF609C8399619A775A6105F0F7F9232357
:10CA900033702B78FEF762BCFDF730F969E7334B52
:10CAA000334993F9000002F091FD1F233370FEF724
:10CAB00038BD304B93F90030012B40F36A85062BCB
:10CAC00000F35B852C490220194402F07FFD1E23F0
:10CAD0003370FEF726BD294B93F900000228D2BF20
:10CAE0002749284900F1FF3002F070FD1C23337004
:10CAF000FEF717BD244B93F90030012B40F34F850F
:10CB0000082B00F3408521490220194402F05EFD04
:10CB100016233370FEF705BD74AF03008CAF03001E
:10CB200090AF030070AF03003E5600206056002017
:10CB3000185600204456002084480020A4480020B5
:10CB4000BC56002034B0030074B10300011F030081
:10CB50002E570020D51E03002D570020A91E0300CC
:10CB60002C5700207D1E03002B5700203D5600202F
:10CB700018090400415600203E0A0400A456002073
:10CB80003809040039090400405600202609040031
:10CB90000122C249C248C34C02F09AFB00231A4644
:10CBA0004FF40041C048237006F082FFFDF75CFDA2
:10CBB000FDF79CFC12233370FEF7B3BCBB4BBC49A2
:10CBC00093F9000002F002FD10233370FEF7A9BCB8
:10CBD000B84B93F9000002F0C7FF0E233370FEF745
:10CBE000A0BCB54B93F86A0002F076FF0D233370BA
:10CBF000FEF797BCB14BB24993F9000002F0E6FC96
:10CC000015233370FEF78DBC4FF480520021AD48E0
:10CC1000FCF79EFCAC4AAD49002002F01BFD14233A
:10CC20003370FEF77EBCAA4BB3F9000004F036F96E
:10CC300000224FF480419C4806F03AFF13233370E2
:10CC4000FEF76FBCA34C204605F0C6F9A24B218825
:10CC5000A24A198000211B2311603370FEF761BCCA
:10CC6000954A92F8741092F8733092F8750043EA7E
:10CC7000012343EA004005F087F9984A00211A236E
:10CC800011603370FEF74DBC934B954A9A609548FE
:10CC90005860012215216FF00107022510241F6141
:10CCA000DD609C8399619A775A6105F053F92323DB
:10CCB0003370FEF736BC8C4B8C4993F9000002F0C0
:10CCC00085FC19233370FEF72CBC894B894993F9F5
:10CCD000000002F07BFC18233370FEF722BC7E4B71
:10CCE000854A9A608548586001221521002705254C
:10CCF00010241F61DD609C8399619A775A6105F069
:10CD000019F923233370FEF70CBC734B7C4A9A60ED
:10CD10007C485860012215216FF00107022510247C
:10CD20001F61DD609C8399619A775A6105F01AF85A
:10CD300023233370FEF7F5BB5F4B73489B6F734A39
:10CD400073491B1A18BF01231846137002F03EFCEA
:10CD500017233370FEF7E5BB06F0A0FAFEF778BBA9
:10CD6000564B574993F900006A4D02F02FFC0122FF
:10CD700015232A703370FEF757BB4A4D2B78092BC9
:10CD800000F2E6814B4B93F90030012B00F08E83CB
:10CD9000022B40F0938305F02DFCC0B2FF2800F079
:10CDA000C0825D4A0021022002F04AFBFF232B7063
:10CDB00000224FF4C0313C4806F07AFEFEF7B1BBCA
:10CDC000564C57492388534D01339BB21A4604A849
:10CDD00023800BF06FFB04AA0021012002F030FB3E
:10CDE00001232B70FEF720BB002004F0E7FC4D4A26
:10CDF000484D0121002002F023FB0020FDF750FDEB
:10CE0000FDF774FB4849CE200122072308702A70E1
:10CE10003370FEF709BB002004F0D0FC0121434A27
:10CE2000002002F00DFB3D4B4FF6FF7202201A80EE
:10CE3000FDF736FD3E4A0021012002F001FBFDF71F
:10CE400053FE0028FBD104463A483B494378027818
:10CE50008078009004A80BF02DFB2E4D04AA2146EB
:10CE6000022002F0EDFA012206232A703370FEF749
:10CE7000DBBA0023294A274D1380184604F07EFDB3
:10CE8000012205232A703370FEF7CEBAFEF73EFA70
:10CE9000FEF7D3BEFDF7E8FBFEF79BBCD0AF030067
:10CEA000D8AF030058560020844800203B5600208D
:10CEB00008BC03000E550020BC5600205D56002023
:10CEC00030090400C0570020C4AF0300C8AF0300FE
:10CED000A4480020AC5600201856002044560020DC
:10CEE000551F0300295700203A560020400904002E
:10CEF0003C5600201C090400351F03002757002062
:10CF0000651D030033570020C0B203003F560020C8
:10CF1000200904003E56002038B003003856002097
:10CF20002CAF03005CAF03005E56002034AF03005B
:10CF300040AF03004C5400204CAF0300D04CD14D07
:10CF4000637E2A78D0491344DBB204AE1A463046D9
:10CF50002B700BF0AFFA32460021022002F070FA7B
:10CF6000637E002B78D0191F8908581E01310228D2
:10CF70004FEA810240F2FB81256805F07F3000F125
:10CF8000013005F080356840012904904AD0656879
:10CF900005F07F3000F1013005F08035684002294E
:10CFA00005903FD0A06800F07F3505F1013500F015
:10CFB000803068400329069034D0E56805F07F3062
:10CFC00000F1013005F0803568400429079029D030
:10CFD000256905F07F3000F1013005F080356840AB
:10CFE000052908901ED0606900F07F3505F10135F4
:10CFF00000F0803068400629099013D0A06900F045
:10D000007F3505F1013500F08030684007290A902E
:10D0100008D0E16901F07F3000F1013001F080318A
:10D0200041400B91934217D0A55C0CA8511C1044B1
:10D0300001358B4200F8205C0EDD605C0CAD2944AC
:10D0400002320130934201F8200C05DDA15C0CA8EE
:10D050000244013102F8201C0CAA1A448B4F8C4D5B
:10D060000133D9B23046412302F8203CFDF726FBBC
:10D070003A78637E87491344DBB21A4630463B70E8
:10D080000BF018FA32460DE4834B814D1868FDF71A
:10D0900005FF2B78FEF762B90024804F7C4D3C8061
:10D0A000204604F08BFB20467D4A012102F0C8F99E
:10D0B0003A887C4904A80BF0FDF904AA2146012016
:10D0C00002F0BEF940F2024005F04EF801220223C0
:10D0D0002A703370FEF7A8B9FDF7BEFE09F09AFB7F
:10D0E000002840F05B8101F0DBF8FDF779FC0923B3
:10D0F0003370FEF735B938466B4A002102F0A0F9CB
:10D100002B78FEF72BB941F69A11FFF764BA674BFB
:10D110005F4D93F900000128C6BF00F1FF3064495C
:10D12000644902F053FA01221C232A703370FEF77F
:10D130007BB9614B614993F90000554D02F046FA05
:10D140005F4901230A222B700B703270FEF76CB915
:10D150000A2B7FF4B2A8FF235A4A2B700146022003
:10D1600002F06EF924E608F1FF34E4B20A2C28BF7D
:10D170000A2407F112012246494430460BF041F9D6
:10D180000CAB2344002403F8204C0DF10F050EE0F6
:10D1900015F901BF0BF006F958445A46437803F0DD
:10D1A0000303022B08BFABF120022A700134304682
:10D1B0000BF0B6F9A042EBD8FFF762BB424A002160
:10D1C000022002F03DF9FFF72EBB012B40F3448112
:10D1D000072B00F093803D490220194402F0F6F934
:10D1E000FEF79FB93A4B3B4A9A67012283F87620B3
:10D1F000FEF764BFD3F81C11D3F81801012202F026
:10D2000067F800224FF4C031334806F051FCFEF7B6
:10D210007BF8FDF729FAFEF7B2BD02283EF7CAAE49
:10D22000FEF7ACBE012B40F35181062B5ADC2B4993
:10D230000220194402F0CAF9FEF773B9042002462D
:10D24000FEF785BD224B234A9A67012283F8762098
:10D25000FEF72EBE102004F087FFFFF78AB80020EB
:10D260000246FEF774BD012B40F31D81042B3FDC09
:10D270001B490220194402F0A9F9FEF752B900BF78
:10D28000FC5100205C560020F0AF03000D5500203B
:10D290003E560020F8AF03005456002038560020B8
:10D2A00020AF03002CAF0300ACAF0300A456002056
:10D2B000390904003809040060560020FC08040005
:10D2C000B856002044B0030080AF030026090400D4
:10D2D000BC56002078B10300844800203E0A0400B8
:10D2E0001E090400B449032002F070F9FEF719B9D1
:10D2F000B249032002F06AF9FEF713B9B0490320DE
:10D3000002F064F9FEF70DB9002313701846FFF719
:10D3100013B9FCF705FDFEF725BAFCF7BFFCFEF7D5
:10D3200021BA2A78511CC9B209294FF0200398BFAD
:10D330003132297098BF54B24FF000058DF810308B
:10D340008DF811308DF8123084BF3024312330270E
:10D350002526294604AA02208DF814408DF81330A2
:10D360008DF817508DF815708DF81660F8E60022CC
:10D370005AE6944B94481A6115210122934F586044
:10D38000092510249F60DD609C8399619A775A611A
:10D3900004F00AFD23233370FEF7C3B805F07EFFC7
:10D3A000A1E605231370981E844902F00FF9FEF7D9
:10D3B000B8B8FDF7D1FD8046FDF7D4FD8146FDF7F5
:10D3C000D7FD0A25824F834938601FFA89F304AEDE
:10D3D00005FB03F34FEA19421B1430460BF06AF8C1
:10D3E00032462146012002F02BF898FBF5F2304638
:10D3F00005FB128378490BF05DF821463246022086
:10D4000002F01EF83A68002AAEBF744974495242CD
:10D4100030460BF04FF832460021032002F010F89E
:10D4200000224FF480416F4806F042FBFEF779B8C6
:10D4300007231370181F604902F0C8F8FEF771B88F
:10D4400007231370181F5E4902F0C0F8FEF769B891
:10D4500041F69A11FFF7DDB81846FEF740BD0123EB
:10D4600023800120604A002100F062FFB4F900002F
:10D47000FEF738BF7EF436AF5B4A002100F058FF5C
:10D48000B4F90000FEF72EBF584D564801232B700B
:10D4900006F064FB00224FF4C031524806F008FB4E
:10D4A0002B78FDF75BBF1846FEF7F2BC05F018F8C5
:10D4B000C0B273E441F69A11FFF72CBA05F0E8F810
:10D4C000C0B26BE404201870FEF774BD1846FEF776
:10D4D000E5BD05F0E3FEFFF728B900F06DFAFFF7B0
:10D4E000A6B84FF48031FFF794B800F0A5FAFFF723
:10D4F0001FBA4FF48031FFF70DBA41F69A11FFF7CA
:10D50000DCB8616860690A682369121A9342B8BF7F
:10D5100013460B600846FDF782BF626860691378A6
:10D5200021691B1A8B42B8BF0B4613706068FDF768
:10D5300076BF616860690A68E36802449342A8BFE5
:10D5400013460B600846FDF76ABF6268606913788E
:10D55000E16803448B42A8BF0B4613706068FDF777
:10D560005EBF41F69A11FDF742BF4FF48031FFF7DD
:10D57000A4B84FF48031FDF73ABF0F49032002F001
:10D5800025F8FFF7A4BA0E49032002F01FF8FFF7B1
:10D59000BFBA1846164902F019F8FFF798BA1846AC
:10D5A000144902F013F8FFF7B3BA104DFEF789BD26
:10D5B0000E4DFEF780BC00BF440A0400220904009F
:10D5C0002C0904001856002028570020A91D03002C
:10D5D00054560020FCAE030004AF030010AF03005C
:10D5E00018AF030084480020500A04003E56002073
:10D5F000400A0400280904002DE9F04F5D4C23780F
:10D6000085B07BB15C4DD5F800B0BBF5805F80F094
:10D610008E805A4B1A7842B1594A1268002A40F05B
:10D620009C801A7005B0BDE8F08F564F7B794FEAA9
:10D63000570ECEF1000E01331EF0030E7B7100F089
:10D6400085803B880093BEF1010F1A4600F0888068
:10D650007B881A4493B2BEF1030F1A46009340F040
:10D660008480BB881A4493B200937C230293BB1D31
:10D670000193CEF17F039BB203934FF0000807EBB9
:10D680004E0E43464246DEF80460DEF8009006EB9C
:10D69000020A09EB030CC3F30F40C2F30F4100234E
:10D6A00008F101081A4601EB16411FFA8CFC00EB49
:10D6B00019401FFA8AFA1FFA88F680B26CF30F033A
:10D6C0006AF30F0289B21E2E60F31F4361F31F42FB
:10D6D0000EF1080ED7D9009B039A604403445344CB
:10D6E0000B447C2A9BB211D001990298B1F8F82022
:10D6F0007D2813449BB209D0B1F8FA207E28134448
:10D700009BB203D0B1F8FC2013449BB258464FF4AF
:10D7100080721C49A7F80231FDF71EFB2B6800221E
:10D7200003F580732B60227005B0BDE8F08F0023F5
:10D7300018462B60FDF784FA104B01224FF4E0608D
:10D740001A7005B0BDE8F04F04F00EBD7F230393BF
:10D750000293CDF800E001978FE74FF4E060F0E727
:10D760007E230293BB1C019383E77D2302933B1D21
:10D7700001937EE7B8560020A8560020A648002056
:10D7800038530020BC5600202DE9F04F654C664D03
:10D79000002083B020602E4607E0236803F58070E8
:10D7A000B0F5805F206080F0958001223146FDF762
:10D7B0006FFA2B79AA2BF0D0FF2B00F08680002087
:10D7C000FDF73EFAFDF734FB10F00100FAD1FF231C
:10D7D00020602B71554D56492C1D20464FF4807208
:10D7E0000AF00FFE63085B4213F0030300F08A8027
:10D7F000012BB5F8048000F09080EA88032B904458
:10D800001FFA88F840F084802A8990441FFA88F82B
:10D810004FF07C0B05F10A0CC3F17F0292B201922A
:10D8200002334FF0000E05EB43047046734694E854
:10D830004002C3F30F41F71809EB000A0023C0F3BD
:10D840000F420EF1010E01EB1641184602EB194290
:10D85000BFB21FFA8AF61FFA8EF989B267F30F0377
:10D8600066F30F0092B2B9F11E0F61F31F4362F32A
:10D870001F4004F10804DAD9394408EB01033344AA
:10D880001344019A7C2A9BB211D0BCF8F820BBF15A
:10D890007D0F13449BB20AD0BCF8FA20BBF17E0F77
:10D8A00013449BB203D0BCF8FC2013449BB24FF44A
:10D8B00080721E49A5F802310020FDF74DFA1D4B7C
:10D8C00000221A7003B0BDE8F08F2368002B81D0CE
:10D8D000A3F58073154C184621464FF48072FDF76E
:10D8E000D7F994F8760094F87710134A134B52F84E
:10D8F000202053F8213094F86C00A267E36700F011
:10D90000F9FCDCE77F220192A4469346984687E71C
:10D910004FF07D0B05F1080C7EE74FF07E0B05F113
:10D92000060C79E7A8560020B0560020BC5600200F
:10D9300058B00300B85600208845002090450020CC
:10D940001B4B1C4893F8742093F87510805C022AD6
:10D950000ED0814208DB01210B2A83F875101ED8F6
:10D96000013283F874207047013183F875107047D5
:10D9700010B493F87340A40700D10130814205DA56
:10D98000013183F875105DF8044B704701210132B5
:10D9900083F8751083F874205DF8044B704793F892
:10D9A000732083F874100A4483F87320704700BF13
:10D9B000BC56002058B10300134A92F87530012B71
:10D9C00003D0013B82F87530704792F87430012B18
:10D9D0000FD0013BDBB20D4982F87430022BC95CD9
:10D9E00004D192F873309B0708BF013182F875109B
:10D9F000704792F873300C21013B82F8741082F862
:10DA000073301F21F2E700BFBC56002058B103005D
:10DA100043783A2B07D902780023162A437006D997
:10DA200003700120704701334370002070470132BA
:10DA300002701846704700BF437833B903783B2221
:10DA400042702BB9172303707047013B4370704736
:10DA5000013B0370704700BF2DE9F04790F900309B
:10DA6000244E0146002291F9004054B1A55D11F900
:10DA7000014F2A44002CF6D091F900400132002CCD
:10DA8000F4D1C2F1800222F0010683B3DFF868808E
:10DA9000DFF868C0DFF868E0DFF86890203BDAB2B2
:10DAA0005A2A1FD818F803505CF823406F1E002C28
:10DAB00008BF7446B5B1254406EB090314F9012BE0
:10DAC00093F8001993F801A95140AC4282EA0A0286
:10DAD00083F8001983F8012903F10203EED102361D
:10DAE00006EB470610F9013F0236002BD6D1BDE800
:10DAF000F08700BF54AD030074AD0300ECA5030034
:10DB00005C900300C05700202DE9F84FA44F7B42E2
:10DB100013F00303054600F00D81A7F5C06696F8E3
:10DB20000026012B02F00F0286F8002600F0148177
:10DB300096F80126032B02F00F0286F8012640F02A
:10DB4000108196F8022602F00F0286F802264FF0A6
:10DB5000FD0806F20367C3F5807C3F244FF0FC0EFE
:10DB600003F5C063F118081F002250F8043F01328A
:10DB700003F00F33944241F8043BF6D8E645A8EB96
:10DB80000E0307EB0E0211D017F80E10012B01F057
:10DB90000F0107F80E1009D05178022B01F00F0188
:10DBA000517003D0937803F00F0393707D4F7E483C
:10DBB00000214FF48072FBF7CBFC794211F0030196
:10DBC00000F0C08096F80038012923F03F0386F862
:10DBD000003800F0BD8096F80138032923F03F0398
:10DBE00086F8013840F0C28096F8023823F03F03EF
:10DBF000033786F802384FF0FD08C1F5807C3F24DA
:10DC00004FF0FC0E01F500613144081F002250F86E
:10DC1000043F013203F0C033944241F8043BF6D88C
:10DC2000E645A8EB0E0307EB0E0211D017F80E1015
:10DC3000012B21F03F0107F80E1009D05178022B7B
:10DC400021F03F01517003D0937823F03F0393708C
:10DC5000002D6DD0DFF85C81544A95F90030904575
:10DC600000F088802A464FF0000EA8F1200492F9B7
:10DC7000001059B1085D12F9011F86440029F6D041
:10DC800092F900100EF1020E0029F3D1CEF1800EB0
:10DC9000002B4DD0DFF82091203BDAB23A2A41D850
:10DCA000434918F8032059F8237051F8234002F132
:10DCB000FF3A002C08BF3C46A2B3022313FB02EC40
:10DCC000B44406EB0E0357F804BB93F8000693F830
:10DCD000001793F8002880EADB0081EADB2182EA62
:10DCE000DB4283F8000683F8001783F8002854F815
:10DCF00004BB93F8010693F8011793F8012880EA12
:10DD0000DB0081EADB2182EADB4283F8010683F84B
:10DD1000011783F8012802336345D4D10EF1020EB6
:10DD20000EEB4A0E15F9013F0EF1040E002BB3D194
:10DD3000BDE8F88F4FF4807EA7F5C066F046F44644
:10DD400040240DE74FF48078C446C646402459E786
:10DD500001374FF0FF0850E74FF0FF0806F2016768
:10DD6000F9E64FF0FE0806F20267F4E602374FF0DC
:10DD7000FE0842E729464FF0000EA8F1200491F971
:10DD80000020002A82D0105D11F9012F8644002A5C
:10DD9000F5D091F900200EF1010E002AF3D175E7BC
:10DDA000C05D0020C05F0020C05E002074AD030095
:10DDB000B0AA030030AE0300C4A90300444A534292
:10DDC00013F003032DE9F04104460D466CD0A2F593
:10DDD000807292F80011012B01F01F0182F80011EE
:10DDE00070D092F80111032B01F01F0182F801118C
:10DDF00063D192F8021101F01F0182F802114FF075
:10DE0000FD0802F2031EC3F5807CFC273F2603F5C4
:10DE100080731A44101F002150F8043F013103F0B1
:10DE20001F33B14242F8043BF6D3BC45A8EB0703CD
:10DE30000EEB070211D01EF80710012B01F01F0195
:10DE40000EF8071009D05178022B01F01F01517014
:10DE500003D0937803F01F0393704FF460620021A6
:10DE60001C48FBF775FB8CB120460AF059FB4FF4B8
:10DE70008072002106461848FBF76AFB2046FFF730
:10DE8000EBFD3246214615480AF0BBFA28460AF057
:10DE900047FB04462846FFF737FE2246294610482E
:10DEA000BDE8F0410AF0ADBA4FF480779646BC4623
:10DEB000A2F58072B8464026A9E74FF0FE0802F5A9
:10DEC000817EA0E74FF0FF0802F2011E9BE700BF32
:10DED000C0580020C0590020C0600020B448002075
:10DEE000C448002000287BD02DE9F04F3D4ADFF8E0
:10DEF000FC8090F9003090454FF000070246A8F1F1
:10DF0000200561D092F9001051B14C5D12F9011F4A
:10DF100027440029F6D092F9001002370029F4D1E5
:10DF2000C7F18007002B4DD0DFF8C490DFF8C4E0C4
:10DF3000203BDAB23A2A40D82B4918F8032059F886
:10DF4000236051F8235002F1FF3A002D08BF3546F7
:10DF50009AB3022313FB027CF44407EB0E0356F83A
:10DF600004BB93F8004393F8001493F8002584EA67
:10DF7000DB1481EADB3182EADB5283F8004383F869
:10DF8000001483F8002555F804BB93F8014393F877
:10DF9000011493F8012584EADB1481EADB3182EA7B
:10DFA000DB5283F8014383F8011483F8012502331F
:10DFB0009C45D4D1023707EB4A0710F9013F0437DB
:10DFC000002BB5D1BDE8F08F92F900100029A7D041
:10DFD0004C5D12F9011F27440029F5D00137F3E702
:10DFE000704700BF74AD0300B0AA030030AE030059
:10DFF000C4A90300C05700202DE9F04F3949DFF8CC
:10E00000F080394B91F9002098454FF000061346F7
:10E01000A8F120045BD043B1185D11F9013F06441B
:10E02000002BF8D00236002BF6D1C6F18006002A6C
:10E030004BD02C4FDFF8BC90DFF8BCE01346203B00
:10E04000DAB23A2A3CD8294918F8032059F8235063
:10E0500051F8234002F1FF3A002C08BF2C467AB356
:10E06000022313FB026CF44406EB0E0355F804BBC9
:10E07000187893F8001193F8002280EA5B1081EA87
:10E080005B3182EA5B52187083F8001183F800223A
:10E0900054F804BB587893F8011193F8012280EAF0
:10E0A0005B1081EA5B3182EA5B52587083F80111A0
:10E0B00083F8012202339C45D8D1023606EB4A068A
:10E0C00017F9013F0436002BB9D1BDE8F08F002BC2
:10E0D000ABD0185D11F9013F0644002BF7D0013693
:10E0E000F5E700BFD848002074AD0300B0AA0300D4
:10E0F00030AE0300C4A90300C057002038B5044661
:10E100000D46FCF7F1FC0028FBD14FF0A0434FF087
:10E110000062C3F80C25294620464FF00072BDE886
:10E120003840FCF7A9BC00BF38B504460D46FCF7E3
:10E13000DBFC0028FBD14FF0A0434FF00062C3F896
:10E140000825294620464FF00072BDE83840FCF70C
:10E1500093BC00BF2DE9F0474FF0A0454FF080423F
:10E160004FF000784FF08061474F484BC5F80C25C1
:10E17000C5F80885C5F80C153A68454E184600BF25
:10E1800000BF00BF00BF00BF00BF00BF00BFB24262
:10E1900000D000BF0138F2D14FF0006AC5F80CA5DD
:10E1A000C5F8081500BF00BF00BF00BF00BF00BF1B
:10E1B00000BF00BFB24200D000BF013BF2D1354BDF
:10E1C000354CDFF8D89003CB1B8820604246616055
:10E1D000238120460721FCF74FFC3A684B4600BFDD
:10E1E00000BF00BF00BF00BF00BF00BF00BFB24202
:10E1F00000D000BF013BF2D12E23237042462046BF
:10E200000121FCF739FC3B6800BF00BF00BF00BF25
:10E2100000BF00BF00BF00BFB34200D000BFB9F1D4
:10E220000109F1D12F234246237020460121FCF73A
:10E2300023FC42F210733A6800BF00BF00BF00BF6A
:10E2400000BF00BF00BF00BFB24200D000BF013B13
:10E25000F2D1AF234246237020460121FCF70CFC8B
:10E260004FF47A733A6800BF00BF00BF00BF00BF21
:10E2700000BF00BF00BFB24200D000BF013BF2D1DF
:10E28000C5F808A5BDE8F08798450020A0860100E4
:10E290000024F400EC080400C4670020400D0300D3
:10E2A00008B5134BAE221A70FCF71EFC0028FBD1F8
:10E2B0004FF0A0434FF00062C3F80C2501214FF04E
:10E2C00000720B48FCF7D8FBFCF70EFC0028FBD1D2
:10E2D0004FF0A0434FF080604FF000714FF080424C
:10E2E000C3F80C05C3F80C15C3F8082508BD00BF1A
:10E2F000B048002000B50D4A83B08123125C8DF830
:10E3000005208DF80430FCF7EFFB0028FBD14FF01F
:10E31000A0434FF00062C3F80C2502214FF00072B9
:10E3200001A8FCF7A9FB03B05DF804FB0CBC0300DB
:10E33000F0B592F9006085B00D46002E42D0074638
:10E340001146354814460AF0D9F8002857D1334B06
:10E350001A68BA420ED03A4631491F6068460AF040
:10E36000A9F84FF4407200212E48FBF7F1F86846F7
:10E37000FFF7B8FD1E2D23D82B4B53F82540FCB1D9
:10E380002A4B1A78AA421BD04FF420620021284859
:10E390001D70FBF7DDF8274804F29E2504F14301C8
:10E3A0000346227803F8022C14F8012B03F8012C01
:10E3B000A14203F10203F4D1A54200F58070EDD132
:10E3C00005B0F0BD1C4A144B07CA03C331461A807E
:10E3D0001A484FF44072FBF7BBF8FFF70DFE0F4BE6
:10E3E000104831464FF0FF344FF440721C60FBF789
:10E3F000AFF81348FFF776FD0C4B1C70BAE72146C7
:10E4000005480AF085F84FF4407200210B48FBF7ED
:10E410009FF8FFF7F1FD9AE7D8480020D448002084
:10E42000E4080400C05A002030BC0300E848002083
:10E43000C05D0020FE5D0020CC080400C057002015
:10E44000D8080400F8B5042806D8DFE810F0A400C6
:10E450000501010201030600F8BD7A4E734213F074
:10E46000030300F0A285A6F5C06494F80026012BF2
:10E4700002F00F0284F8002600F07A8694F8012654
:10E48000032B02F00F0284F8012640F0778694F8FF
:10E49000022602F00F0284F802264FF0FD0E04F26D
:10E4A0000366C3F5807CFC273F2503F5C063E118B4
:10E4B000081F002250F8043F013203F00F33AA4234
:10E4C00041F8043BF6D3BC45AEEB070306EB07026D
:10E4D0000FD0F15D012B01F00F01F15509D05178FA
:10E4E000022B01F00F01517003D0937803F00F035A
:10E4F0009370554F55484FF480720021FBF728F870
:10E500007B4213F0030300F0488594F80018012BB8
:10E5100021F03F0184F8001800F07D8694F801187E
:10E52000032B21F03F0184F8011840F0818694F814
:10E53000021821F03F01FD1C84F80218FD27C3F5E5
:10E54000807EFC263F2003F500631C44211F00222F
:10E5500051F8043F013203F0C033824244F8043BD7
:10E56000F6D3B645A7EB060305EB06023FF474AFFE
:10E57000A95D012B21F03F01A9553FF46DAF517802
:10E58000022B21F03F0151703FF466AF937823F0E6
:10E590003F039370F8BD002940F055852C4D6B4228
:10E5A00013F0030300F0D485A5F5406494F8002C23
:10E5B000012B02F00F0284F8002C00F03D8694F845
:10E5C000012C032B02F00F0284F8012C40F0398655
:10E5D00094F8022C02F00F0284F8022CFD2704F6B6
:10E5E0000345C3F5807E3F20FC2603F540631C44B1
:10E5F000211F002251F8043F013203F00F33824201
:10E6000044F8043BF6D37645A7EB060305EB060278
:10E610000FD0A95D012B01F00F01A95509D0517848
:10E62000022B01F00F01517003D0937803F00F0318
:10E6300093704FF4407200210648BDE8F840FAF7A5
:10E6400087BF00BFC05D0020C05F0020C05E00200B
:10E65000C0630020C0640020002900F0FF83794CD3
:10E6600094F8005894F8020894F8032804F604017A
:10E670004B4265F07F0560F03F0062F07F0213F0CF
:10E68000030384F8005884F8020884F8032800F093
:10E69000688594F80428012B62F03F0284F804286E
:10E6A00000F0CC8494F80528032B62F03F0284F834
:10E6B000052840F09F8494F8062862F03F0284F811
:10E6C0000628F52704F6070EC3F1F80CF4263D25BD
:10E6D00003F60403E118081F002250F8043F01323A
:10E6E00043F0C033AA4241F8043BF6D3B445A7EB4C
:10E6F00006030EEB060211D01EF80610012B61F086
:10E700003F010EF8061009D05178022B61F03F014D
:10E71000517003D0937863F03F03937094F8FC1822
:10E7200094F8FD2894F8FE38474863F07F0361F0C1
:10E730003F0162F07F0284F8FC1884F8FD2884F819
:10E74000FE384FF44072FF21FAF702FF3F4A94F877
:10E75000006C94F8015C94F8020C94F8031C53428A
:10E7600046F0070645F0030540F00F0041F00701B1
:10E7700013F0030384F8006C84F8015C84F8020C45
:10E7800084F8031C00F0408594F8041C012B41F030
:10E790000F0184F8041C00F0798594F8051C032B04
:10E7A00041F00F0184F8051C40F06B8594F8061CBD
:10E7B00041F00F0102F1030E84F8061CF526C3F1A7
:10E7C000F80CF4273D2503F60443E118081F002246
:10E7D00050F8043F013243F00F33AA4241F8043BA2
:10E7E000F6D3BC45A6EB07060EEB070311D01EF8C7
:10E7F0000720012E42F00F020EF8072009D05A78A8
:10E80000022E42F00F025A7003D09A7842F00F02A3
:10E810009A7094F8FC0C94F8FD1C94F8FE2C94F873
:10E82000FF3C40F00F0041F0070142F0070243F0C7
:10E83000030384F8FC0C84F8FD1C84F8FE2C84F897
:10E84000FF3CF8BDC0570020C0600020C46300201A
:10E85000002900F06982E04C94F8006594F80155B5
:10E8600094F8020594F8032504F204514B4266F033
:10E87000070665F0030560F0030062F0010213F083
:10E88000030384F8006584F8015584F8020584F8D0
:10E89000032500F08E8494F80425012B62F0010218
:10E8A00084F8042500F0B98394F80525032B62F061
:10E8B000010284F8052540F0A28394F8062562F051
:10E8C000010284F80625F52704F2075EC3F1F80C6F
:10E8D000F4263D2503F20453E118081F002250F8E6
:10E8E000043F013243F0FE33AA4241F8043BF6D321
:10E8F000B445A7EB06030EEB060211D01EF8061076
:10E90000012B61F001010EF8061009D05178022B9D
:10E9100061F00101517003D0937863F001039370AB
:10E9200094F8FC5594F8FD1594F8FE2594F8FF35FD
:10E93000AA4863F0030365F0030561F0010162F08A
:10E94000070284F8FC5584F8FD1584F8FE2584F848
:10E95000FF354FF40072FF21FAF7FAFDA04994F851
:10E96000006894F8015894F8020894F803284B4280
:10E9700046F03F0645F01F0540F07F0042F03F02A1
:10E9800013F0030384F8006884F8015884F802083F
:10E9900084F8032800F0FE8394F80428012B42F049
:10E9A0007F0284F8042800F0838494F80528032B60
:10E9B00042F07F0284F8052840F0758494F8062818
:10E9C00042F07F0284F80628F52701F1030EC3F117
:10E9D000F80CF4263D251944081F002250F8043F86
:10E9E000013243F07F33AA4241F8043BF6D3B445E9
:10E9F000A7EB06030EEB060211D01EF80610012B42
:10EA000041F07F010EF8061009D05178022B41F039
:10EA10007F01517003D0937843F07F03937094F893
:10EA2000FC0894F8FD1894F8FE2894F8FF3840F09C
:10EA30007F0041F03F0142F03F0243F01F0384F8A2
:10EA4000FC0884F8FD1884F8FE2884F8FF38F8BD27
:10EA5000644C6342002900F0CB8013F0030300F004
:10EA60009F83A4F5807494F80021012B62F01F02AB
:10EA700084F8002100F0CC8294F80121032B62F08D
:10EA80001F0284F8012140F0BE8294F8022162F056
:10EA90001F0284F802214FF0FD0E04F20316C3F5A5
:10EAA000807CFC273F2503F58073E118081F0022B6
:10EAB00050F8043F013243F0E033AA4241F8043BEE
:10EAC000F6D3BC45AEEB070306EB07020FD0F15DB2
:10EAD000012B61F01F01F15509D05178022B61F033
:10EAE0001F01517003D0937863F01F0393704FF4AC
:10EAF0004072FF213C48FAF72BFD3C4994F8015540
:10EB000094F8020594F803254B4245F0010540F0C6
:10EB1000010042F0030213F0030384F8015584F866
:10EB2000020584F8032500F02F8394F80425012BB7
:10EB300042F0030284F8042500F0B18394F805251F
:10EB4000032B42F0030284F8052540F0A48394F8D7
:10EB5000062542F0030284F80625F52701F1030E8D
:10EB6000C3F1F80CF4263D251944081F002250F883
:10EB7000043F013243F00333AA4241F8043BF6D389
:10EB8000B445A7EB06030EEB060211D01EF80610E3
:10EB9000012B41F003010EF8061009D05178022B29
:10EBA00041F00301517003D0937843F00303937055
:10EBB00094F8FC1594F8FD2594F8FF3541F0010117
:10EBC00042F0030243F0010384F8FC1584F8FD25AC
:10EBD00084F8FF35F8BD00BFC0570020C05D00209D
:10EBE000C45F0020C0580020C0590020C45C002031
:10EBF00013F0030300F01383A4F5807494F800214C
:10EC0000012B02F01F0284F8002100F0EE8194F83D
:10EC10000121032B02F01F0284F8012140F0E08162
:10EC200094F8022102F01F0284F802214FF0FD0E39
:10EC300004F20316C3F5807CFC273F2503F580739F
:10EC4000E118081F002250F8043F013203F01F337F
:10EC5000AA4241F8043BF6D3BC45AEEB070306EBF2
:10EC600007020FD0F15D012B01F01F01F15509D012
:10EC70005178022B01F01F01517003D0937803F0FB
:10EC80001F039370E74DE8484FF440720021FAF7F4
:10EC90005FFC6B4213F0030300F0988294F80015B8
:10ECA000012B21F0010184F8001500F0E78294F8AF
:10ECB0000115032B21F0010184F8011540F0DB82DE
:10ECC00094F8021521F00101033584F80215FD279F
:10ECD000C3F5807EFC263F2003F5A0631C44211F62
:10ECE000002251F8043F013203F0FE33824244F81F
:10ECF000043BF6D3B645A7EB060305EB06023FF44B
:10ED0000ABABA95D012B21F00101A9553FF4A4ABE8
:10ED10005178022B21F00101517000F0AA82937802
:10ED200023F001039370F8BDBE4D6B4213F0030353
:10ED300000F05282A5F5A06494F80025012B02F0A2
:10ED4000030284F8002500F0468194F80125032B86
:10ED500002F0030284F8012540F0388194F802257E
:10ED600002F0030284F802254FF0FD0E04F2035670
:10ED7000C3F5807CFC273F2503F5A063E118081F3D
:10ED8000002250F8043F013203F00333AA4241F855
:10ED9000043BF6D3BC45AEEB070306EB07020FD0EE
:10EDA000F15D012B01F00301F15509D05178022BDF
:10EDB00001F00301517003D0937803F003039370C3
